:020000040800F2
:1000000000800120A5310008050A0008070A000841
:10001000090A00080B0A00080D0A00080000000089
:100020000000000000000000000000000F0A0008AF
:10003000110A000800000000130A0008150A000851
:10004000F5310008F5310008F5310008F5310008F8
:10005000F5310008F5310008F5310008F5310008E8
:10006000F5310008F5310008F5310008F5310008D8
:10007000F5310008F5310008F5310008F5310008C8
:10008000F5310008F5310008F5310008F5310008B8
:10009000F5310008F5310008F53100081D0A0008A7
:1000A000F5310008F5310008F5310008F531000898
:1000B000F5310008F5310008F5310008F531000888
:1000C000F5310008F5310008F5310008F531000878
:1000D000F5310008F5310008F5310008F531000868
:1000E0003B0A0008F5310008F5310008F531000839
:1000F000F5310008F5310008F5310008F531000848
:10010000F5310008F5310008F5310008F531000837
:10011000F5310008F5310008F5310008F531000827
:10012000F5310008F5310008F5310008F531000817
:10013000F5310008F5310008F5310008F531000807
:10014000F5310008F5310008F5310008F5310008F7
:10015000F5310008F5310008F5310008F5310008E7
:10016000F5310008F5310008F5310008F5310008D7
:10017000F5310008F5310008000000000000000023
:08018000F5310008F53100081B
:1001880010B5054C237833B9044B13B10448AFF3C9
:1001980000800123237010BD100000200000000023
:1001A8005032000808B5034B1BB103490348AFF3AD
:1001B800008008BD00000000140000205032000834
:1001C80053B94AB9002908BF00281CBF4FF0FF31B6
:1001D8004FF0FF3000F06EB9ADF1080C6DE904CEB8
:1001E80000F006F8DDF804E0DDE9022304B070470A
:1001F8002DE9F047089D04468C46002B40F083808B
:100208008A42174647D9B2FA82F242B1C2F12000B7
:1002180024FA00F09140974040EA010C94404FEADC
:100228001748230CBCFBF8F61FFA87FE08FB16C11B
:1002380043EA014306FB0EF1994209D9FB1806F17E
:10024800FF3080F01981994240F21681023E3B440A
:100258005B1AA4B2B3FBF8F008FB103344EA03447A
:1002680000FB0EFEA64509D93C1900F1FF3380F0CA
:100278000581A64540F2028102383C4440EA064026
:10028800A4EB0E0400261DB1D4400023C5E90043A9
:100298003146BDE8F08702B9FFDEB2FA82F2002AE1
:1002A80050D1CB1B4FEA174E1FFA87F80126B3FB34
:1002B800FEFC210C0EFB1C3341EA034108FB0CF346
:1002C8008B4207D979180CF1FF3002D28B4200F229
:1002D800E9808446C91AA3B2B1FBFEF00EFB1011E7
:1002E80043EA014408FB00F8A04507D93C1900F18E
:1002F800FF3302D2A04500F2D9801846A4EB0804C7
:1003080040EA0C40BFE78B4209D9002D00F0B180CC
:100318000026C5E9000130463146BDE8F087B3FA4A
:1003280083F6002E4AD18B4202D3824200F2B88073
:10033800841A61EB030101208C46002DA8D0C5E981
:10034800004CA5E7C2F1200320FA03F6974001FA12
:1003580002F04FEA174ED9403043030CB1FBFEF6CA
:100368001FFA87F80EFB161143EA014306FB08F152
:10037800994204FA02F409D9FB1806F1FF3C80F00F
:100388008D80994240F28A80023E3B445B1A81B2DA
:10039800B3FBFEF00EFB103341EA034100FB08F308
:1003A8008B4207D9791800F1FF3C73D28B4271D97F
:1003B80002383944CB1A40EA064678E7C6F1200CE1
:1003C80003FA06F422FA0CF31C4320FA0CF701FA9C
:1003D80006F34FEA144E21FA0CF11F433B0CB1FB14
:1003E800FEF91FFA84F80EFB191143EA014109FBD3
:1003F80008FA8A4502FA06F200FA06F308D96118E3
:1004080009F1FF3048D28A4546D9A9F102092144A9
:10041800A1EB0A01BFB2B1FBFEF00EFB101147EAD7
:10042800014700FB08F8B84507D9E71900F1FF3183
:100438002ED2B8452CD90238274440EA0940A7EB08
:100448000807A0FB02894F45C64649461AD317D06C
:100458005DB1B3EB0E0267EB010707FA0CFCF24043
:100468004CEA0202F740C5E9002700263146BDE8FC
:10047800F0872E4628460BE70646E9E61846FDE6CD
:100488004345E5D2B8EB020E69EB04010138DFE71A
:100498000846D2E760468DE78146B9E7664675E7C4
:1004A80030464AE7ACF1020C394413E702383C44C1
:1004B80024E700BF704700BF2DE9F04F8BB0002440
:1004C80005940694079408940994A74BDA6C42F0B3
:1004D8001002DA64DA6C02F010020092009ADA6C08
:1004E80042F00402DA64DA6C02F004020192019A22
:1004F800DA6C42F00102DA64DA6C02F0010202926C
:10050800029ADA6C42F00202DA64DA6C02F0020251
:100518000392039ADA6C42F00802DA64DB6C03F0A7
:1005280008030493049B914F22464FF48A7138467E
:1005380001F014FF224648F204114FF0904001F0F8
:100548000DFF8B4E22464BF21401304601F006FF98
:10055800012244F22001304601F000FFDFF8189232
:10056800224641F28101484601F0F8FE01224FF48B
:100578000051484601F0F2FEDFF800A222464FF48F
:100588001071504601F0EAFE01221146384601F08A
:10059800E5FE40F215130593012506950794089486
:1005A80005A9384601F0F4FD6A230593DFF8D0B1B8
:1005B800CDF818B0079405A9384601F0E9FD4FF4C5
:1005C800005305936B4B0693079405A9504601F019
:1005D800DFFD3F2305930B230693079405A9504697
:1005E80001F0D6FD032705974FF00208CDF81880D3
:1005F800079408970823099305A94FF0904001F044
:10060800C7FD48F20413059306950794089405A9B5
:100618004FF0904001F0BCFD08230593CDF81880F9
:1006280007940894099505A94FF0904001F0B0FD92
:10063800102305930B230693079405A94FF09040C8
:1006480001F0A6FDE0230593CDF8188007940897DC
:100658000523099305A94FF0904001F099FD0595F0
:10066800CDF818B0079405A9304601F091FDCDF8F2
:1006780014800B230693079405A9304601F088FDE2
:100688004BF23403059306950794089405A9304660
:1006980001F07EFD4FF48043059306950794089773
:1006A80005A9304601F074FD4CF604430593CDF8D6
:1006B80018B0079405A9484601F06AFD43F2810382
:1006C800059306950794089405A9484601F060FD2E
:1006D8004FF41073059306950794089405A950469E
:1006E80001F056FD4FF4C0730593CDF818B0079488
:1006F80005A9504601F04CFDCDF81480CDF81880BE
:10070800079408970523099305A9484601F040FD79
:1007180078230593CDF81880079408970723099341
:1007280005A9484601F034FD4FF4407305931223A0
:100738000693079508970423099305A9304601F005
:1007480027FD22462146172001F096FE172001F0CA
:10075800C7FE22462146282001F08EFE282001F0FF
:10076800BFFE0BB0BDE8F08F00100240001000483B
:100778000004004800002110000C00480008004850
:100788000000111008B50C480C4B036001220271DF
:10079800002383600221C160036143614FF48071CB
:1007A8008161C3610421016243628262C36203639F
:1007B80000F02EFB08BD00BF54000020206001405F
:1007C80038B50D4C0D4B23600D4B63600025A560BB
:1007D8000123E36025616561A561E5612562204625
:1007E80000F0F8FB2946204600F052FC2946204636
:1007F80000F07CFC38BD00BF140500200058004004
:10080800EC9C901008B50748074B0360FF23436032
:10081800012282600023C36002614361836101F0A9
:10082800ADFE08BD44060020001000A008B50E4823
:100838000E4B03604FF482734360002383604FF4D0
:100848004072C260036143614FF400728261C36108
:100858000362436283620722C2620363082343631D
:1008680001F0EAFE08BD00BF60050020003C004022
:1008780008B50948094B03604FF4E133436000238E
:100888008360C36003610C2242618361C3610362B8
:10089800436202F01BFA08BDC4050020003801407D
:1008A80008B50948094B03604FF4E133436000235E
:1008B8008360C36003610C2242618361C361036288
:1008C800436202F003FA08BD8C0000200048004093
:1008D80008B509484FF0A04303600623436002238C
:1008E800C36083610023C36103624362836203635D
:1008F800C36202F01CFA08BD0C010020F0B5B9B0C3
:100908004422002127A802F097FC00242294239473
:1009180024942594269488222146684602F08CFC6B
:1009280001F038FD224AD2F8903023F01803C2F8BB
:10093800903014232793012529952D952E94602313
:100948002F9302263196329533952823349307271F
:1009580035973696379627A800F096FC0F232293F2
:1009680003232393249425942694042122A800F099
:10097800A3FF104B00930E941094159420944FF0FD
:1009880080631B930195029518230393049705969A
:1009980006964FF480130793684601F0C3F94FF4A5
:1009A800007001F007FD01F0EBFB39B0F0BD00BFAE
:1009B800001002408520010008B500F0D5FAFFF7C5
:1009C8009DFFFFF779FDFFF7DDFEFFF7F9FEFFF763
:1009D80019FFFFF72BFFFFF74BFFFFF761FFFFF74B
:1009E80077FF40F6B83000F0E1FA4FF48041024852
:1009F80001F0B9FCF5E700BF000400487047FEE7C6
:100A0800FEE7FEE7FEE770477047704708B500F05D
:100A1800BBFA08BD08B5202001F0AEFC402001F06B
:100A2800ABFC802001F0A8FC4FF4807001F0A4FC1E
:100A380008BD08B54FF4806001F09EFC4FF40060DB
:100A480001F09AFC4FF4005001F096FC4FF48040FE
:100A580001F092FC4FF4004001F08EFC08BD00004C
:100A680082B00A4B1A6E42F001021A661A6E02F040
:100A780001020092009A9A6D42F080529A659B6D2D
:100A880003F080530193019B02B0704700100240AD
:100A980000B589B000230393049305930693079345
:100AA800154B1B6813B109B05DF804FB03F18043D3
:100AB80003F504331A6E42F080721A661A6E02F059
:100AC80080720192019ADA6C42F01002DA64DB6CEF
:100AD80003F010030293029B4FF420730393022345
:100AE80004930023059306930623079303A9034859
:100AF80001F04EFBD7E700BF2C0000200010004893
:100B080010B588B0002303930493059306930793C5
:100B18000268144B9A4201D008B010BD124CE36C25
:100B280043F00203E364E36C03F002030193019BC7
:100B38004FF4406303931223049301230593032383
:100B480006930423079303A9084801F021FBA36D2A
:100B580043F48003A365A36D03F480030293029B0F
:100B6800DAE700BF005800400010024000040048C7
:100B780000B589B000230393049305930693079364
:100B88000268164B9A4202D009B05DF804FB03F1E3
:100B9800204303F500331A6D42F480721A651A6D0A
:100BA80002F480720192019ADA6C42F01002DA645F
:100BB800DB6C03F010030293029B4FF47C43039316
:100BC8000223049300230593032306930A23079320
:100BD80003A9034801F0DCFAD6E700BF001000A023
:100BE8000010004800B589B00023039304930593CF
:100BF800069307930268154B9A4202D009B05DF834
:100C080004FB03F5EA339A6D42F400429A659A6D43
:100C180002F400420192019ADA6C42F00402DA64AA
:100C2800DB6C03F004030293029B4FF4E05303933D
:100C380002230493002305930323069306230793B3
:100C480003A9034801F0A4FAD8E700BF003C00401C
:100C58000008004800B58BB000230593069307935E
:100C6800089309930368274A934205D0264A93427A
:100C780024D00BB05DF804FB244B1A6E42F480427A
:100C88001A661A6E02F480420192019ADA6C42F0F6
:100C98000202DA64DB6C03F002030293029BC023B6
:100CA800059302230693002307930323089307233E
:100CB800099305A9164801F06BFADAE7134B9A6D08
:100CC80042F480229A659A6D02F480220392039A74
:100CD800DA6C42F00802DA64DB6C03F00803049370
:100CE800049B4FF440730593022306930023079354
:100CF800032308930723099305A9064801F048FA36
:100D0800B7E700BF0038014000480040001002402B
:100D180000040048000C004830B589B00023039354
:100D280004930593069307930368B3F1A04F01D08A
:100D380009B030BD214CE36C43F00103E364E36C7C
:100D480003F001030093009B4FF400730393002505
:100D58000495059503A94FF0904001F019FA4FF456
:100D6800E0530393022304930595032306930A2370
:100D7800079303A94FF0904001F00AFAE36C43F49B
:100D88008053E364E36C03F480530193019BA36DE8
:100D980013F0805F0FD1A36D43F08053A365A36D5B
:100DA80003F080530293029B01F04CFBA36D23F0E8
:100DB8008053A365BCE701F045FBB9E7001002408A
:100DC800124B984215D02033984214D020339842C1
:100DD80013D04033984212D02033984211D0203398
:100DE800984210D02033984201D003207047072042
:100DF8007047002070470120704702207047042088
:100E08007047052070470620704700BF006001400A
:100E1800002878D010B504460068FFF7D1FF3B4B97
:100E280053F820300BB1012010BD2046FFF730FEEB
:100E3800374B1A6801321A601B68012B45D02268AB
:100E4800136823F47143136021680A682369606991
:100E58000343A069034313430B602268136823F01C
:100E68000F03136021680B68E269206A0243134389
:100E78000B602268936823F45F039360206883689B
:100E8800626AA16A013942EA014213438360226817
:100E9800536803F00703536021684A68E06A236BCC
:100EA800DB0043EA002313434B602268136843F0D6
:100EB80080031360012384F834302068FFF780FF33
:100EC800124B43F820400020AEE7124B1A6822F07C
:100ED80080421A601A68A1680A431A601A6822F4E4
:100EE8007F021A602379012B05D00A4A136843F060
:100EF80000431360A3E707490B68E268013A43EA35
:100F080002430B60F1E70120704700BF300000206A
:100F18005000002000600140104B1B680BB90120F5
:100F2800704710B504464FF47A70B0FBF3F30C4ADF
:100F38001068B0FBF3F001F0E1FA68B90F2C01D9A1
:100F480001200AE0002221464FF0FF3001F094FA18
:100F5800044B1C60002000E0012010BD00000020B0
:100F6800080000200400002010B5032001F072FAE8
:100F78000020FFF7D1FF10B10124204610BD044620
:100F8800FFF76EFDF9E70000034A13680349096893
:100F98000B441360704700BF880600200000002043
:100FA800014B1868704700BF8806002038B5044612
:100FB800FFF7F6FF0546B4F1FF3F02D0044B1B686C
:100FC8001C44FFF7EDFF401BA042FAD338BD00BF19
:100FD80000000020002859D010B5044690F8413090
:100FE800002B43D0242384F841302268136823F06F
:100FF800010313606368226823F070631361226839
:10100800936823F400439360E368012B33D0A3680B
:10101800226843F404439360E368022B31D02268CA
:10102800536843F0007343F4004353602268D36865
:1010380023F40043D360236962691343A1692268DA
:1010480043EA0123D360E369216A22680B431360F2
:101058002268136843F001031360002060642023B2
:1010680084F84130206384F8420010BD80F8403095
:10107800FFF746FDB6E7A368226843F40043936090
:10108800CAE723684FF400625A60C8E70120704736
:1010980090F84130DBB2202B24D190F84030012B5E
:1010A80022D0012380F84030242380F841300268A0
:1010B800136823F0010313600268136823F4805354
:1010C800136002681368194311600268136843F0DB
:1010D80001031360202380F84130002380F840305A
:1010E80018467047022070470220704790F8413038
:1010F800DBB2202B22D190F84030012B20D00123E5
:1011080080F84030242380F841300268136823F0C7
:10111800010313600268136823F4706343EA012132
:1011280011600268136843F001031360202380F8FC
:101138004130002380F8403018467047022070473D
:101148000220704730B583B00446204B9B6D13F0E6
:10115800805F0BD001F026F9B0F5007F17D0802C06
:101168001FD82DD0702C2DD000211BE0174DAB6D52
:1011780043F08053AB65AB6D03F080530193019B43
:1011880001F010F9AB6D23F08053AB65E4E7802CD8
:1011980003D9A02C03D9022104E0002102E0012197
:1011A80000E003210A4A136823F007030B43136086
:1011B800136803F007038B4206D1002003B030BD4B
:1011C8000221EFE70121EDE70120F7E700100240D7
:1011D80000200240284A9368D26802F0030213F004
:1011E8000C030AD00C2B06D0042B1FD0082B20D0C0
:1011F8000020024610E0012AF6D11F4A126812F0B8
:10120800080F0CD11C4AD2F89420C2F303221B49C0
:1012180051F8222043B100200C2B0DD07047164AFC
:101228001268C2F30312F2E71046F5E714480022E9
:10123800F2E714480022EFE70F4BDB6803F00303E3
:10124800022B16D0032B00D10E4A0B4BD868C0F3E3
:1012580002100130D968C1F3062102FB01F2B2FB8A
:10126800F0F2D868C0F3416001304000B2FBF0F002
:10127800D4E7034AE9E700BF0010024080320008C3
:101288000024F40000127A00002800F0FF82F0B574
:1012980083B00446AE4B9D6805F00C05DE6806F089
:1012A8000306036813F0100F5AD0E5B10C2D18D0BF
:1012B800A369002B00F0BB80A54A136843F0010323
:1012C8001360FFF76DFE0746A14B1B6813F0020F72
:1012D80040F09A80FFF764FEC01B0228F4D903206F
:1012E800DFE2012EE4D19A4B1B6813F0020F03D002
:1012F800A369002B00F0CC82206A954B1B6813F081
:10130800080F5BD0924B1B6803F0F00398425CD83F
:101318008F4B1A6842F008021A601A6822F0F0022D
:10132800216A0A431A605A6822F47F42E16942EA54
:1013380001225A60002D60D0FFF74CFF844B9B6858
:10134800C3F30313834AD35C03F01F03D840824BD3
:101358001860824B1868FFF7DFFD002840F0A18273
:10136800236813F0010F00F08180082D75D00C2D33
:1013780071D06368B3F5803F00F09780B3F5A02F74
:1013880000F09980724B1A6822F480321A601A6849
:1013980022F480221A606368002B00F09980FFF71E
:1013A800FFFD07466A4B1B6813F4003F5ED1FFF749
:1013B800F7FDC01B6428F5D9032072E2644BD3F80B
:1013C80094301B0903F0F003A0E7FFF7BBFE0028E9
:1013D80040F060825E4B1A6842F008021A601A6890
:1013E80022F0F002216A0A431A605A6822F47F4206
:1013F800E16942EA01225A609EE7206AFFF7A2FEED
:10140800002899D001204CE2514B1A6842F008029A
:101418001A601A6822F0F002216A0A431A605A68B0
:1014280022F47F42E16942EA01225A6098E7484A79
:10143800136823F001031360FFF7B2FD0746444B1E
:101448001B6813F0020F8BD0FFF7AAFDC01B022800
:10145800F5D9032025E2032E8BD13D4B1B6813F4ED
:10146800003F03D06368002B00F01682236813F056
:10147800020F4FD0042D3CD00C2D38D0E368002B40
:1014880077D0334A136843F480731360FFF788FDFD
:1014980006462F4B1B6813F4806F61D1FFF780FD60
:1014A800801B0228F5D90320FBE1294A136843F47D
:1014B800803313606FE703F18043A3F53C331A6868
:1014C80042F480221A601A6842F480321A6062E795
:1014D800FFF766FD07461E4B1B6813F4003FC5D097
:1014E800FFF75EFDC01B6428F5D90320D9E1022E61
:1014F800C4D1174B1B6813F4806F03D0E368002B2B
:1015080000F0CC81124A536823F0F853216943EA6A
:1015180001635360236813F0080F55D06369002BEB
:101528003BD00B4AD2F8943043F00103C2F8943010
:10153800FFF736FD0646064BD3F8943013F0020F3A
:1015480042D1FFF72DFD801B0228F4D90320A8E122
:101558000010024068320008080000200400002043
:10156800B84A536823F0F853216943EA016353608A
:10157800D0E7B44A136823F480731360FFF710FDB3
:101588000646B04B1B6813F4806FC3D0FFF708FD05
:10159800801B0228F5D9032083E1AA4AD2F89430A7
:1015A80023F00103C2F89430FFF7FAFC0646A54B76
:1015B800D3F8943013F0020F06D0FFF7F1FC801B2C
:1015C8000228F4D903206CE1236813F0040F7AD0C1
:1015D8009C4B9B6D13F0805F36D19A4B9A6D42F00D
:1015E80080529A659B6D03F080530193019B0126FD
:1015F800954B1B6813F4807F28D0A368012B39D042
:10160800052B3FD08F4BD3F8902022F00102C3F86E
:101618009020D3F8902022F00402C3F89020A36809
:10162800002B3DD0FFF7BCFC0746864BD3F8903023
:1016380013F0020F46D1FFF7B3FCC01B41F2883309
:101648009842F2D903202CE10026D1E77E4A13689C
:1016580043F480731360FFF7A3FC07467A4B1B68BB
:1016680013F4807FC9D1FFF79BFCC01B0228F5D972
:10167800032016E1734AD2F8903043F00103C2F810
:101688009030CCE76F4BD3F8902042F00402C3F8B7
:101698009020D3F8902042F00102C3F89020BEE7D2
:1016A800FFF77EFC0746674BD3F8903013F0020F24
:1016B80008D0FFF775FCC01B41F288339842F2D975
:1016C8000320EEE06EBBA36A002B00F0E980022B3A
:1016D8002DD00C2D00F0EB805A4B1A6822F0807246
:1016E8001A601B6813F0205F04D1564AD36823F0B0
:1016F8000303D360534AD36823F0887323F48033F9
:10170800D360FFF74DFC04464E4B1B6813F0007F77
:1017180000F0BA80FFF744FC001B0228F4D903202C
:10172800BFE0484A936D23F080539365CBE7454B60
:10173800DB6803F00301E26A91420FD00C2D00F040
:10174800B280404B1B6813F0806F40F0AE803D4B79
:101758001B6813F0805F2DD00120A2E003F0700217
:10176800216B0139B2EB011FE8D103F4FE42616B32
:10177800B2EB012FE2D103F40031A26B073A18BF94
:1017880001229142DAD103F4C001E26B5208013A16
:10179800B1EB425FD2D103F0C063226C5208013A28
:1017A800B3EB426FCAD1274B1B6813F0007F51D0AF
:1017B800002076E0234A136823F080731360FFF754
:1017C800EFFB05461F4B1B6813F0007F06D0FFF7A1
:1017D800E7FB401B0228F5D9032062E0194AD368C9
:1017E8001A491940E36A206B013843EA0013606B19
:1017F80043EA0023E06B4008013843EA4053206C79
:101808004008013843EA4063A06B000943EA4043BB
:101818000B43D360136843F080731360D36843F0BD
:101828008073D360FFF7BCFB0446064B1B6813F0BC
:10183800007F0DD1FFF7B4FB001B0228F5D9032068
:101848002FE000BF00100240007000408C809DF91E
:10185800002026E0174B1A6842F080721A60DA6896
:1018680042F08072DA60FFF79BFB0446114B1B685D
:1018780013F0007F06D1FFF793FB031B022BF5D96A
:1018880003200EE000200CE000200AE00120704751
:10189800012006E0012004E0012002E0012000E030
:1018A800002003B0F0BD0120FBE70120F9E701208B
:1018B800F7E700BF00100240002800F0988070B5DC
:1018C8000C4605464E4B1B6803F007038B420BD2B0
:1018D8004B4A136823F007030B431360136803F0A4
:1018E80007038B4240F085802B6813F0010F39D035
:1018F8006B68032B09D0022B26D063BB414A1268C0
:1019080012F0020F06D1012070E03E4A126812F070
:10191800007F70D03B498A6822F0030213438B6032
:10192800FFF73EFB0646374B9B6803F00C036A68DB
:10193800B3EB820F16D0FFF733FB801B41F28833DD
:101948009842F0D9032051E02E4A126812F4003F61
:10195800E0D101204AE02B4A126812F4806FD9D1F5
:10196800012043E02B6813F0020F06D0254A936844
:1019780023F0F003A9680B439360214B1B6803F025
:101988000703A3420AD91E4A136823F00703234317
:101998001360136803F00703A3422ED12B6813F0DA
:1019A800040F06D0174A936823F4E063E9680B43F1
:1019B80093602B6813F0080F07D0124A936823F43A
:1019C8006053296943EAC1039360FFF703FC0D4B99
:1019D8009B68C3F303130C4AD35C03F01F03D8407E
:1019E8000A4B18600A4B1868FFF796FA70BD012079
:1019F80070470120FAE70120F8E70120F6E700BF69
:101A08000020024000100240683200080800002050
:101A180004000020014B1868704700BF0800002030
:101A280008B5FFF7F7FF054B9B68C3F30223044A89
:101A3800D35C03F01F03D84008BD00BF001002406C
:101A48007832000808B5FFF7E5FF054B9B68C3F33C
:101A5800C223044AD35C03F01F03D84008BD00BF6B
:101A68000010024078320008F8B504460F46594B7A
:101A7800DB6813F0030F18D0564BDB6803F0030341
:101A88000268934202D001252846F8BD002A00F0DA
:101A98009E80504BDB68C3F30213013342689342C4
:101AA80001D00125F0E7002509E00368022B57D093
:101AB800032B5CD0012B42D00125002DE4D1454AEF
:101AC800136823F080631360FFF76AFA0646414BF8
:101AD8001B6813F0006F05D0FFF762FA831B022B17
:101AE800F5D90325002DCFD1002F4ED139490B69E7
:101AF80023F41F3323F44073A068E26812095204E8
:101B080042EA002213430B61324A136843F08063B0
:101B18001360FFF745FA06462E4B1B6813F0006F5B
:101B280005D1FFF73DFA831B022BF5D90325002DBC
:101B3800AAD1284A1369A1690B431361A4E7254A6E
:101B4800126812F0020F1ED02248C26822F07302F7
:101B58006168013943EA01131343C3600025ACE708
:101B68001C4A126812F4806FEED10125A5E7194AC4
:101B7800126812F4003FE7D1164A126812F4802F57
:101B8800E2D1012599E7012597E7012F0FD01148E8
:101B9800026922F0C06222F4FE42A16863695B0810
:101BA800013B5B0643EA012313430361ACE70948A1
:101BB800026922F4C00222F4FE42A16823695B088C
:101BC800013B5B0543EA0123134303619CE70125BD
:101BD8005AE700BF00100240F8B504460F46504BC4
:101BE800DB6813F0030F18D04D4BDB6803F00303D9
:101BF8000268934202D001252846F8BD002A00F069
:101C08008C80474BDB68C3F302130133426893426D
:101C180001D00125F0E7002509E00368022B57D021
:101C2800032B5CD0012B42D00125002DE4D13C4A86
:101C3800136823F080531360FFF7B2F90646384B58
:101C48001B6813F0005F05D0FFF7AAF9831B022B6E
:101C5800F5D90325002DCFD1002F4ED130494B693E
:101C680023F41F3323F44073A068E2681209520476
:101C780042EA002213434B61294A136843F0805318
:101C88001360FFF78DF90646254B1B6813F0005FBC
:101C980005D1FFF785F9831B022BF5D90325002D04
:101CA800AAD11F4A536961690B435361A4E71C4ACF
:101CB800126812F0020F1ED01948C26822F073028F
:101CC8006168013943EA01131343C3600025ACE797
:101CD800134A126812F4806FEED10125A5E7104A65
:101CE800126812F4003FE7D10D4A126812F4802FEF
:101CF800E2D1012599E7012597E70948426922F0D1
:101D0800C06222F4FE42A16823695B08013B5B06BE
:101D180043EA012313434361AEE701256CE700BFA3
:101D2800001002402DE9F04182B00446036813F424
:101D3800006F33D0436EB3F5000F1FD00CD823B318
:101D4800B3F5800F05D100212030FFF745FF064687
:101D580020E001273E4623E0B3F5400F0BD10026D3
:101D6800624AD2F8883023F44003616E0B43C2F80C
:101D78008830002714E001273E4611E05B4AD3680B
:101D880043F48033D3600026EAE700210430FFF7EC
:101D98006BFE0646002EE3D0374601E000273E469C
:101DA800236813F4805F21D0A36EB3F1007F79D04C
:101DB8000ED8002B7CD0B3F1807F06D1002104F12E
:101DC8002000FFF709FF064605E001273E460DE023
:101DD800B3F1407F63D1002E70D1444AD2F88830E5
:101DE80023F04073A16E0B43C2F88830236813F4C4
:101DF800003F00F084803D4B9B6D13F0805F5FD106
:101E08003A4B9A6D42F080529A659B6D03F080536D
:101E18000193019B4FF00108354A136843F480731E
:101E28001360FFF7BDF80546314B1B6813F4807F3C
:101E380005D1FFF7B5F8401B0228F5D90326002E77
:101E480058D12A4BD3F8903013F4407316D0D4F8F5
:101E580084209A4212D0254AD2F8903023F4407355
:101E6800D2F8901041F48031C2F89010D2F8901056
:101E780021F48031C2F89010C2F8903013F0010FAD
:101E880021D1002E40F03981184AD2F8903023F43D
:101E98004073D4F884100B43C2F890302BE001272C
:101EA8003E46A3E7114AD36843F48033D36092E7F0
:101EB8000021201DFFF7D8FD06468CE7374695E739
:101EC8004FF00008A8E7FFF76BF80546074BD3F873
:101ED800903013F0020FD4D1FFF762F8401B41F2A3
:101EE80088339842F2D90326CBE700BF001002409E
:101EF800007000403746B8F1000F40F000812368B9
:101F080013F0010F08D09D4AD2F8883023F003035C
:101F1800A16B0B43C2F88830236813F0020F08D076
:101F2800964AD2F8883023F00C03E16B0B43C2F8D1
:101F38008830236813F0040F08D0904AD2F888300C
:101F480023F03003216C0B43C2F88830236813F068
:101F5800080F08D0894AD2F8883023F0C003616C92
:101F68000B43C2F88830236813F0100F08D0834A57
:101F7800D2F8883023F44073A16C0B43C2F8883040
:101F8800236813F0200F08D07C4AD2F8883023F455
:101F98004063E16C0B43C2F88830236813F4007F78
:101FA80008D0764AD2F8883023F44023E16D0B43F9
:101FB800C2F88830236813F4806F08D06F4AD2F8CB
:101FC800883023F44013216E0B43C2F8883023680D
:101FD80013F0400F08D0694AD2F8883023F44053F0
:101FE800216D0B43C2F88830236813F0800F08D0A6
:101FF800624AD2F8883023F44043616D0B43C2F83B
:102008008830236813F4807F08D05C4AD2F888307F
:1020180023F44033A16D0B43C2F88830236813F4CE
:10202800005F0FD0554AD2F8883023F04063E16E44
:102038000B43C2F88830E36EB3F1006F65D0B3F19B
:10204800806F67D0236813F4002F0FD04B4AD2F863
:10205800883023F04063216F0B43C2F88830236F28
:10206800B3F1006F5ED0B3F1806F60D0236813F4D2
:10207800802F0FD0414AD2F8883023F04063616F37
:102088000B43C2F88830636FB3F1006F57D0B3F1D8
:10209800806F59D0236813F4804F0FD0374AD2F895
:1020A800883023F04053A16F0B43C2F88830A36FE8
:1020B800B3F1805F50D0B3F1005F55D0236813F4BB
:1020C800004F08D02D4AD2F8883023F08043E16FC2
:1020D8000B43C2F88830236813F4803F09D0274A9D
:1020E800D2F8883023F00043D4F880100B43C2F8AC
:1020F8008830384602B0BDE8F0813746FBE61F4A13
:10210800936D23F080539365F9E6D36843F4801305
:10211800D36097E70121201DFFF7A6FC002891D086
:1021280007468FE7D36843F48013D3609EE7012105
:10213800201DFFF799FC002898D0074696E7D3683A
:1021480043F48013D360A5E70121201DFFF78CFC21
:1021580000289FD007469DE70221201DFFF784FC39
:102168000028ABD00746A9E7022104F12000FFF7B9
:1021780033FD0028A2D00746A0E700BF00100240A8
:10218800024A136843F004031360704700100240CA
:10219800F0B583B000233FE0C66A26EA0406C5F31B
:1021A800C0049C403443C4625FE0062400E000247D
:1021B800B4403C430235654E46F82540644C2568DA
:1021C800D44325EA02064F6817F4803F01D042EA5B
:1021D80005065F4D2E606D6804EA05064F6817F422
:1021E800003F01D042EA0506594D6E60AD6804EA29
:1021F80005064F6817F4801F01D042EA0506544DC2
:10220800AE60ED682C404E6816F4001F01D042EA1B
:1022180005044F4AD46001330A6832FA03F400F027
:10222800928001249C402240F5D04D686E1E012EFC
:1022380003D9112D01D0122D12D186685F00032514
:10224800BD4026EA0506CD68BD4035438560466831
:1022580026EA04064D68C5F300159D4035434560E0
:102268004D6805F00306032E96D0C7685E00032567
:10227800B540EC4327EA05078D68B5403D43C56086
:102288004D68022D01D0122D13D1DF08083750F800
:1022980027E003F007054FEA850C0F2505FA0CF532
:1022A8002EEA050E0D6905FA0CF545EA0E0540F80B
:1022B8002750056825404C6804F00304B4402C43BB
:1022C80004604C6814F0805FA5D0224C256E45F060
:1022D80001052566246E04F001040194019C9D0803
:1022E800AE1C1A4C54F8267003F00304A6000F2401
:1022F800B44027EA0407B0F1904F3FF458AF164CAA
:10230800A04216D004F58064A04214D004F580647D
:10231800A04212D004F58064A04210D004F5806475
:10232800A0420ED004F58064A0423FF43EAF0724DB
:102338003EE701243CE702243AE7032438E7042473
:1023480036E7052434E703B0F0BD00BF00000140C4
:102358000004014000100240000400480AB18161F5
:1023680070478162704743690B4201D081627047B0
:10237800816170477047000008B5054B5B690342EF
:1023880000D108BD024B5861FFF7F4FFF9E700BF21
:1023980000040140024A136843F4807313607047D5
:1023A80000700040024B186800F4C060704700BF1E
:1023B80000700040B0F5007F0FD01F4B1B6803F47E
:1023C800C063B3F5806F34D01B4A136823F4C0632D
:1023D80043F48063136000207047174B1B6803F4B5
:1023E800C063B3F5007F20D0134A136823F4C06399
:1023F80043F400731360114B1A68322303FB02F392
:102408000F4AA2FB03239B0C013300E0013B0A4A5D
:10241800526912F4806F01D0002BF7D1064B5B692B
:1024280013F4806F03D10020704700207047032009
:1024380070470020704700BF00700040080000206F
:1024480083DE1B43024A536843F48063536070473A
:1024580000700040074AD36823F4E0631B041B0C98
:10246800000200F4E060034343F0BF6343F4003329
:10247800D360704700ED00E030B4174BDB68C3F35E
:102488000223C3F10704042C28BF04241D1D062DB4
:1024980018D9033B4FF0FF3505FA04F421EA04018B
:1024A800994005FA03F322EA0303194300280BDBDA
:1024B8000901C9B200F1604000F5614080F80013DD
:1024C80030BC70470023E5E700F00F000901C9B2EE
:1024D800024B1954F4E700BF00ED00E014ED00E0F2
:1024E800002807DB00F01F02400901239340024A3D
:1024F80042F82030704700BF00E100E00138B0F139
:10250800807F0AD2064B5860064AF02182F82310D1
:102518000020986007221A6070470120704700BFAA
:1025280010E000E000ED00E02DE9F84305460F4615
:1025380016469946DDF820802C68A4683C4214BFF2
:1025480001240024B44214D0B8F1FF3FF4D0FEF7C0
:1025580027FDA0EB0900404502D8B8F1000FEBD1E8
:10256800042385F83930EB6B43F00103EB6301205A
:1025780000E00020BDE8F8830164704730B583B0FF
:102588000446FEF70DFD002C50D0054694F838306F
:10259800DBB2012B4CD0012384F8383094F8393061
:1025A800002B38D021680B6823F47063A268013AC5
:1025B80043EA02230B60236C00932B460022202160
:1025C8002046FFF7B1FF08BB21680B6823F07F4363
:1025D80023F010036568E26842EA056213430B6062
:1025E80021684A68134B13402569626942EA05422B
:1025F800A5692A4313434B602268136843F001031B
:1026080013600023E363012384F83930002384F83E
:10261800383003B030BD84F838302046FEF7A8FAC9
:1026280041F288312046FFF7A7FFBBE70120F0E71A
:102638000220EEE7FEF8E0FF002853D010B504466C
:102648000023836290F85D30002B40D0022384F889
:102658005D302268136823F040031360E368B3F524
:10266800E06F39D90022B3F5706F04D0B3F5E06F8D
:1026780001D00021A162216B21B9B3F5E06F2ED9F9
:10268800022323636368A1680B4321690B436169D3
:102698000B43A16901F400710B43E1690B43216A03
:1026A8000B43A06A216803430B60638B03F00403A8
:1026B800616A0B43616B0B43E1680B432168134369
:1026C8004B6000202066012384F85D3010BD80F83F
:1026D8005C30FEF787FAB9E74FF48052C3E701236D
:1026E8002363CFE701207047F8B504460168836883
:1026F8000269134342691343C269134308689E4A37
:10270800024013430B602268536823F44053E16886
:102718000B435360A1692268984B9A4201D0236AFF
:102728001943936823F430630B4393602368944AF6
:10273800934210D0934A934221D0934A934237D080
:10274800924A93425CD0924A93426BD08B4A93420E
:102758007DD010253AE002F55842D2F8882002F0E0
:102768000302032A09D8DFE802F0020487060125DC
:102778002CE004252AE0082528E0102526E002F5AB
:10278800E632D2F8882002F00C020C2A0ED8DFE8D4
:1027980002F0070D0D0D090D0D0D750D0D0D0B003A
:1027A800002513E0042511E008250FE010250DE0B1
:1027B80002F5E432D2F8882002F03002202A5FD0F5
:1027C8001AD8002A5ED0102A5ED104256B4A93429B
:1027D80076D0E369B3F5004F00F0F080082D00F2E1
:1027E8007881DFE815F039014E015801760163015F
:1027F8007601760176016D01302A47D10825E5E793
:1028080002F5E232D2F8882002F0C002802A3FD0D6
:1028180004D8FAB3402A3FD10425D7E7C02A3DD1CE
:102828000825D3E702F5E032D2F8882002F4407296
:10283800B2F5007F34D005D8A2B3B2F5807F33D18A
:102848000425C3E7B2F5407F30D10825BEE702F57D
:10285800C832D2F8882002F44062B2F5006F27D05F
:1028680005D83AB3B2F5806F26D10425AEE7B2F5A4
:10287800406F23D10825A9E70225A7E70225A5E788
:102888000225A3E70025A1E710259FE710259DE76E
:1028980002259BE7002599E7102597E7102595E77E
:1028A800022593E7002591E710258FE710258DE78E
:1028B80002258BE7002589E7102587E7102585E79E
:1028C800082D00F20981DFE815F00C000701270048
:1028D8000701240007010701070109004FF4004020
:1028E80004E0FFF79DF8002800F0F880626802EB2A
:1028F8004203834200F2F480B0EB023F00F2F28020
:10290800082D58D8DFE805F00A571F572A57575798
:102918004C00FEF75FFCE6E71E48E7E7FFF780F8A4
:102928000023070E060262685008301847F10001BC
:10293800FDF746FCA0F54072174B9A4200F2D4808E
:102948002368D86098E0560800252B4613480021D4
:10295800801941F10001FDF733FCEBE7FEF73AFC83
:102968000025070E0602626850082B46301847F10A
:102978000001FDF725FCDDE7F369FFEF008000406B
:10298800003801400044004000480040004C00402E
:10299800005000400024F400FFFC0F00000024F465
:1029A800500800252B4610F500002CBF01210021FE
:1029B800FDF706FCBEE701250020BBE7082D48D837
:1029C800DFE805F0051D2847334747473E00FFF776
:1029D80027F86268530803EB4003B3FBF2F39BB29A
:1029E800A3F110014FF6EF7291427FD89AB222F00C
:1029F8000F02C3F3420313432268D3603CE0FFF79E
:102A080021F86268530803EB4003B3FBF2F39BB26F
:102A18000025E5E76268530803F1F47303F5904372
:102A2800B3FBF2F39BB20025DAE7FEF7D3FB62684B
:102A3800530803EB4003B3FBF2F39BB20025CFE747
:102A48006268530803F58033B3FBF2F39BB20025A9
:102A5800C6E701250023C3E7FEF7E2FF626800EB43
:102A68005203B3FBF2F39BB2A3F110014FF6EF72DE
:102A780091423DD82268D3600023236663662846C6
:102A8800F8BDFEF7DFFF626800EB5203B3FBF2F319
:102A98009BB20025E8E76268530803F5740303F561
:102AA8001053B3FBF2F39BB20025DDE7FEF792FB70
:102AB800626800EB5203B3FBF2F39BB20025D3E745
:102AC8006268530803F50043B3FBF2F39BB2002599
:102AD800CAE701250023C7E70125CDE70025CBE795
:102AE8000125C9E70125C7E70125C5E70125C3E792
:102AF8000125C1E7436A13F0010F06D00268536845
:102B080023F40033816A0B435360436A13F0020FC6
:102B180006D00268536823F48033C16A0B435360BC
:102B2800436A13F0040F06D00268536823F4802325
:102B3800016B0B435360436A13F0080F06D0026819
:102B4800536823F40043416B0B435360436A13F00B
:102B5800100F06D00268936823F48053816B0B43EF
:102B68009360436A13F0200F06D00268936823F439
:102B78000053C16B0B439360436A13F0400F0AD0B4
:102B88000268536823F48013016C0B435360036C91
:102B9800B3F5801F0BD0436A13F0800F06D002688C
:102BA800536823F40023816C0B4353607047026819
:102BB800536823F4C003416C0B435360EBE72DE9E2
:102BC800F84305460F4616469946DDF820802C68DE
:102BD800E46937EA04030CBF01240024B4423CD161
:102BE800B8F1FF3FF3D0FEF7DBF9A0EB0900404551
:102BF80021D8B8F1000F1ED02B681A6812F0040F04
:102C0800E5D0DA6912F4006FE1D04FF400621A627D
:102C18002A68136823F4D07313602A68936823F032
:102C28000103936020236B67AB67EB67002385F88C
:102C38007030032012E02A68136823F4D0731360FD
:102C48002A68936823F00103936020236B67AB67BE
:102C5800002385F87030032000E00020BDE8F883E9
:102C680030B583B004460023C367FEF799F90546DB
:102C780023681B6813F0080F0CD123681B6813F036
:102C8800040F15D120236367A367002084F8700020
:102C980003B030BD6FF07E430093034600224FF42B
:102CA80000112046FFF78BFF0028E6D00320EFE74E
:102CB8006FF07E4300932B4600224FF4800120469C
:102CC800FFF77DFF0028DDD00320E1E768B310B5EA
:102CD8000446436F03B3242363672268136823F011
:102CE800010313602046FFF7FFFC012813D0636A35
:102CF800BBB92268536823F49043536022689368F1
:102D080023F02A0393602268136843F001031360D9
:102D18002046FFF7A5FF10BD80F87030FDF79AFF39
:102D2800D9E72046FFF7E6FEE3E701207047F0B554
:102D38008BB0002800F093800546046890F8BD33F6
:102D48002BB3032385F8BD33E36B13F4807F01D1E4
:102D580000232B61286800F0EEF82C4654F8107B0D
:102D68006E460FCC0FC60FCC0FC694E8030086E85A
:102D780003002B1D0ECB384600F0A4F8044658B1CA
:102D8800022385F8BD33012420460BB0F0BD80F83E
:102D9800BC33FDF7C1FFD4E70021286800F0D1F863
:102DA800234616E0C3EBC30205EB8202012182F839
:102DB8003D1082F83C30A2F84230002182F83F10E2
:102DC80051649164C3EBC30205EB820211650133C0
:102DD800DBB269688B42E5D316E0C4EBC40305EBAC
:102DE8008303002283F8FD2183F8FC4183F8FF2147
:102DF800C3F80422C3F80822C4EBC40305EB830319
:102E0800C3F810220134E4B2A142E6D82C4654F8A3
:102E1800107B6E460FCC0FC60FCC0FC694E803008C
:102E280086E803002B1D0ECB384600F0D1F8044687
:102E380060B9002385F83830012385F8BD336B6A03
:102E4800012B08D0286800F079F99DE7022385F85E
:102E5800BD33012498E7284600F003F8F2E701247F
:102E680092E7034602680121C0F8FC13002083F8AA
:102E7800F403936943F000639361536D43F0805307
:102E880043F0030353657047002301330C4A934210
:102E980011D80269002AF8DA036943F001030361D3
:102EA80000230133064A934207D8026912F0010F42
:102EB800F7D100207047032070470320704700BFF8
:102EC800400D030084B010B5044603A880E80E0046
:102ED800089B012B1CD1A36B23F48033A363E36805
:102EE80023F4840323F04003E360E36823F44013EE
:102EF800E3600F9B012B06D02046FFF7C5FFBDE816
:102F0800104004B07047E36843F48013E360F3E7CC
:102F1800E36843F04003E3602046FFF7B5FF0C9BEE
:102F280023B9A36B43F48033A363E8E7A36B23F4CB
:102F38008033A363E3E7836823F001038360002001
:102F4800704708B5C36823F0C043C360012909D09E
:102F580069B9C36843F08043C3603220FEF726F89E
:102F6800002008BDC36843F00053C360F5E70120A3
:102F7800F7E70000890141F02001016100230133D6
:102F8800054A934205D8026912F0200FF7D10020B4
:102F980070470320704700BF400D030010230361F2
:102FA80000230133054A934205D8026912F0100F35
:102FB800F7D1002070470320704700BF400D030081
:102FC800D0F800381943C0F80018002070470000F6
:102FD80084B02DE9F843044609A880E80E00254688
:102FE800002306E003F1400204EB82020021516055
:102FF80001330E2BF6D9DDF84C80B8F1000F31D132
:10300800D4F8043843F00203C4F80438A36B23F45B
:103018000013A363236843F040032360236843F04D
:10302800800323600023C4F8003E04F50066D4F84A
:103038000038C4F8003803212046FFF7C1FF1021EB
:103048002046FFF797FF814608B14FF00109204657
:10305800FFF7A4FF08B14FF0010900233361736142
:10306800F3610FE0A36B43F40013A363DAE7C3B97A
:103078004FF00060C2F8000900220A614FF67F3263
:103088008A600133099F9F4210D905EB431202F56C
:103098001061D2F800090028E9DB0020C2F8000915
:1030A800EAE74FF09040C2F80009E5E700230AE09C
:1030B800BBB14FF09040C2F8000B00220A614FF6F6
:1030C8007F328A6001339F4210D905EB431202F523
:1030D8003061D2F8000B0028EADB0020C2F8000BB0
:1030E800EBE74FF00060C2F8000BE6E7336923F422
:1030F800807333610023A3616FF080436361A36928
:1031080043F01003A361A2690B4B1343A3610F9B08
:103118001BB1A36943F00803A361B8F1010F04D000
:103128004846BDE8F84304B07047A36943F08043BC
:1031380043F00403A361F3E700383C8008B5D0F8F6
:10314800043843F00203C0F804380320FDF72EFFCB
:10315800002008BD0F49D1F8883043F47003C1F846
:1031680088300D4B1A6842F001021A6000209860FE
:103178001A6822F0A85222F410221A604FF48052E2
:10318800DA601A6822F480221A6098614FF00063AE
:103198008B60704700ED00E000100240DFF834D08B
:1031A800002103E00C4B5B58435004310B480C4B97
:1031B80042189A42F6D30B4A02E0002342F8043B35
:1031C800094B9A42F9D3FFF7C5FF00F011F8FDF754
:1031D800F3FBFEE700800120C83200080000002051
:1031E80010000020100000208C060020FEE70000E0
:1031F80070B50D4D0D4C641BA4100026A64209D1D4
:103208000B4D0C4C00F020F8641BA4100026A642BD
:1032180005D170BD55F8043B98470136EEE755F8DF
:10322800043B98470136F2E7B8320008B832000884
:10323800B8320008BC32000802440346934200D169
:10324800704703F8011BF9E7F8B500BFF8BC08BCE4
:103258009E467047F8B500BFF8BC08BC9E4670474C
:10326800000000000000000001020304060708092E
:103278000000000001020304A0860100400D0300C5
:10328800801A060000350C0040420F0080841E00A2
:1032980000093D0000127A000024F40000366E0197
:0832A8000048E801006CDC02A3
:0832B00048CFFF7F0100000080
:0832B800AD0100080000000058
:0832C000890100080000000074
:1032C800010000001000000000093D00000000009F
:04000005080031A519
:00000001FF
